{
  "_format": "hh-sol-artifact-1",
  "contractName": "MyAirDropToken",
  "sourceName": "contracts/MyAirDropToken.sol",
  "abi": [
    {
      "inputs": [
        {
          "internalType": "uint256",
          "name": "_supply",
          "type": "uint256"
        }
      ],
      "stateMutability": "nonpayable",
      "type": "constructor"
    },
    {
      "anonymous": false,
      "inputs": [
        {
          "indexed": true,
          "internalType": "address",
          "name": "owner",
          "type": "address"
        },
        {
          "indexed": true,
          "internalType": "address",
          "name": "spender",
          "type": "address"
        },
        {
          "indexed": false,
          "internalType": "uint256",
          "name": "value",
          "type": "uint256"
        }
      ],
      "name": "Approval",
      "type": "event"
    },
    {
      "anonymous": false,
      "inputs": [
        {
          "indexed": true,
          "internalType": "address",
          "name": "previousOwner",
          "type": "address"
        },
        {
          "indexed": true,
          "internalType": "address",
          "name": "newOwner",
          "type": "address"
        }
      ],
      "name": "OwnershipTransferred",
      "type": "event"
    },
    {
      "anonymous": false,
      "inputs": [
        {
          "indexed": true,
          "internalType": "address",
          "name": "from",
          "type": "address"
        },
        {
          "indexed": true,
          "internalType": "address",
          "name": "to",
          "type": "address"
        },
        {
          "indexed": false,
          "internalType": "uint256",
          "name": "value",
          "type": "uint256"
        }
      ],
      "name": "Transfer",
      "type": "event"
    },
    {
      "inputs": [],
      "name": "REWARD_AMOUNT",
      "outputs": [
        {
          "internalType": "uint256",
          "name": "",
          "type": "uint256"
        }
      ],
      "stateMutability": "view",
      "type": "function"
    },
    {
      "inputs": [
        {
          "internalType": "address",
          "name": "owner",
          "type": "address"
        },
        {
          "internalType": "address",
          "name": "spender",
          "type": "address"
        }
      ],
      "name": "allowance",
      "outputs": [
        {
          "internalType": "uint256",
          "name": "",
          "type": "uint256"
        }
      ],
      "stateMutability": "view",
      "type": "function"
    },
    {
      "inputs": [
        {
          "internalType": "address",
          "name": "spender",
          "type": "address"
        },
        {
          "internalType": "uint256",
          "name": "amount",
          "type": "uint256"
        }
      ],
      "name": "approve",
      "outputs": [
        {
          "internalType": "bool",
          "name": "",
          "type": "bool"
        }
      ],
      "stateMutability": "nonpayable",
      "type": "function"
    },
    {
      "inputs": [
        {
          "internalType": "address",
          "name": "account",
          "type": "address"
        }
      ],
      "name": "balanceOf",
      "outputs": [
        {
          "internalType": "uint256",
          "name": "",
          "type": "uint256"
        }
      ],
      "stateMutability": "view",
      "type": "function"
    },
    {
      "inputs": [
        {
          "internalType": "bytes32",
          "name": "_newRoot",
          "type": "bytes32"
        }
      ],
      "name": "changeSeason",
      "outputs": [],
      "stateMutability": "nonpayable",
      "type": "function"
    },
    {
      "inputs": [
        {
          "internalType": "bytes32[]",
          "name": "_proof",
          "type": "bytes32[]"
        }
      ],
      "name": "claim",
      "outputs": [],
      "stateMutability": "nonpayable",
      "type": "function"
    },
    {
      "inputs": [],
      "name": "decimals",
      "outputs": [
        {
          "internalType": "uint8",
          "name": "",
          "type": "uint8"
        }
      ],
      "stateMutability": "view",
      "type": "function"
    },
    {
      "inputs": [
        {
          "internalType": "address",
          "name": "spender",
          "type": "address"
        },
        {
          "internalType": "uint256",
          "name": "subtractedValue",
          "type": "uint256"
        }
      ],
      "name": "decreaseAllowance",
      "outputs": [
        {
          "internalType": "bool",
          "name": "",
          "type": "bool"
        }
      ],
      "stateMutability": "nonpayable",
      "type": "function"
    },
    {
      "inputs": [
        {
          "internalType": "bytes32[]",
          "name": "_proof",
          "type": "bytes32[]"
        }
      ],
      "name": "eligible",
      "outputs": [
        {
          "internalType": "uint256",
          "name": "",
          "type": "uint256"
        }
      ],
      "stateMutability": "view",
      "type": "function"
    },
    {
      "inputs": [
        {
          "internalType": "address",
          "name": "spender",
          "type": "address"
        },
        {
          "internalType": "uint256",
          "name": "addedValue",
          "type": "uint256"
        }
      ],
      "name": "increaseAllowance",
      "outputs": [
        {
          "internalType": "bool",
          "name": "",
          "type": "bool"
        }
      ],
      "stateMutability": "nonpayable",
      "type": "function"
    },
    {
      "inputs": [],
      "name": "name",
      "outputs": [
        {
          "internalType": "string",
          "name": "",
          "type": "string"
        }
      ],
      "stateMutability": "view",
      "type": "function"
    },
    {
      "inputs": [],
      "name": "owner",
      "outputs": [
        {
          "internalType": "address",
          "name": "",
          "type": "address"
        }
      ],
      "stateMutability": "view",
      "type": "function"
    },
    {
      "inputs": [],
      "name": "renounceOwnership",
      "outputs": [],
      "stateMutability": "nonpayable",
      "type": "function"
    },
    {
      "inputs": [],
      "name": "root",
      "outputs": [
        {
          "internalType": "bytes32",
          "name": "",
          "type": "bytes32"
        }
      ],
      "stateMutability": "view",
      "type": "function"
    },
    {
      "inputs": [],
      "name": "symbol",
      "outputs": [
        {
          "internalType": "string",
          "name": "",
          "type": "string"
        }
      ],
      "stateMutability": "view",
      "type": "function"
    },
    {
      "inputs": [],
      "name": "totalSupply",
      "outputs": [
        {
          "internalType": "uint256",
          "name": "",
          "type": "uint256"
        }
      ],
      "stateMutability": "view",
      "type": "function"
    },
    {
      "inputs": [
        {
          "internalType": "address",
          "name": "to",
          "type": "address"
        },
        {
          "internalType": "uint256",
          "name": "amount",
          "type": "uint256"
        }
      ],
      "name": "transfer",
      "outputs": [
        {
          "internalType": "bool",
          "name": "",
          "type": "bool"
        }
      ],
      "stateMutability": "nonpayable",
      "type": "function"
    },
    {
      "inputs": [
        {
          "internalType": "address",
          "name": "from",
          "type": "address"
        },
        {
          "internalType": "address",
          "name": "to",
          "type": "address"
        },
        {
          "internalType": "uint256",
          "name": "amount",
          "type": "uint256"
        }
      ],
      "name": "transferFrom",
      "outputs": [
        {
          "internalType": "bool",
          "name": "",
          "type": "bool"
        }
      ],
      "stateMutability": "nonpayable",
      "type": "function"
    },
    {
      "inputs": [
        {
          "internalType": "address",
          "name": "newOwner",
          "type": "address"
        }
      ],
      "name": "transferOwnership",
      "outputs": [],
      "stateMutability": "nonpayable",
      "type": "function"
    }
  ],
  "bytecode": "0x60806040523480156200001157600080fd5b506040516200283638038062002836833981810160405281019062000037919062000392565b6040518060400160405280601981526020017f4d79204169722044726f7020546f6b656e202d204a616e696f000000000000008152506040518060400160405280600481526020017f4149524a000000000000000000000000000000000000000000000000000000008152508160039081620000b4919062000634565b508060049081620000c6919062000634565b505050620000e9620000dd6200010260201b60201c565b6200010a60201b60201c565b620000fb3382620001d060201b60201c565b5062000836565b600033905090565b6000600560009054906101000a900473ffffffffffffffffffffffffffffffffffffffff16905081600560006101000a81548173ffffffffffffffffffffffffffffffffffffffff021916908373ffffffffffffffffffffffffffffffffffffffff1602179055508173ffffffffffffffffffffffffffffffffffffffff168173ffffffffffffffffffffffffffffffffffffffff167f8be0079c531659141344cd1fd0a4f28419497f9722a3daafe3b4186f6b6457e060405160405180910390a35050565b600073ffffffffffffffffffffffffffffffffffffffff168273ffffffffffffffffffffffffffffffffffffffff160362000242576040517f08c379a000000000000000000000000000000000000000000000000000000000815260040162000239906200077c565b60405180910390fd5b62000256600083836200034860201b60201c565b80600260008282546200026a9190620007cd565b92505081905550806000808473ffffffffffffffffffffffffffffffffffffffff1673ffffffffffffffffffffffffffffffffffffffff1681526020019081526020016000206000828254620002c19190620007cd565b925050819055508173ffffffffffffffffffffffffffffffffffffffff16600073ffffffffffffffffffffffffffffffffffffffff167fddf252ad1be2c89b69c2b068fc378daa952ba7f163c4a11628f55a4df523b3ef8360405162000328919062000819565b60405180910390a362000344600083836200034d60201b60201c565b5050565b505050565b505050565b600080fd5b6000819050919050565b6200036c8162000357565b81146200037857600080fd5b50565b6000815190506200038c8162000361565b92915050565b600060208284031215620003ab57620003aa62000352565b5b6000620003bb848285016200037b565b91505092915050565b600081519050919050565b7f4e487b7100000000000000000000000000000000000000000000000000000000600052604160045260246000fd5b7f4e487b7100000000000000000000000000000000000000000000000000000000600052602260045260246000fd5b600060028204905060018216806200044657607f821691505b6020821081036200045c576200045b620003fe565b5b50919050565b60008190508160005260206000209050919050565b60006020601f8301049050919050565b600082821b905092915050565b600060088302620004c67fffffffffffffffffffffffffffffffffffffffffffffffffffffffffffffffff8262000487565b620004d2868362000487565b95508019841693508086168417925050509392505050565b6000819050919050565b6000620005156200050f620005098462000357565b620004ea565b62000357565b9050919050565b6000819050919050565b6200053183620004f4565b6200054962000540826200051c565b84845462000494565b825550505050565b600090565b6200056062000551565b6200056d81848462000526565b505050565b5b8181101562000595576200058960008262000556565b60018101905062000573565b5050565b601f821115620005e457620005ae8162000462565b620005b98462000477565b81016020851015620005c9578190505b620005e1620005d88562000477565b83018262000572565b50505b505050565b600082821c905092915050565b60006200060960001984600802620005e9565b1980831691505092915050565b6000620006248383620005f6565b9150826002028217905092915050565b6200063f82620003c4565b67ffffffffffffffff8111156200065b576200065a620003cf565b5b6200066782546200042d565b6200067482828562000599565b600060209050601f831160018114620006ac576000841562000697578287015190505b620006a3858262000616565b86555062000713565b601f198416620006bc8662000462565b60005b82811015620006e657848901518255600182019150602085019450602081019050620006bf565b8683101562000706578489015162000702601f891682620005f6565b8355505b6001600288020188555050505b505050505050565b600082825260208201905092915050565b7f45524332303a206d696e7420746f20746865207a65726f206164647265737300600082015250565b600062000764601f836200071b565b915062000771826200072c565b602082019050919050565b60006020820190508181036000830152620007978162000755565b9050919050565b7f4e487b7100000000000000000000000000000000000000000000000000000000600052601160045260246000fd5b6000620007da8262000357565b9150620007e78362000357565b92508282019050808211156200080257620008016200079e565b5b92915050565b620008138162000357565b82525050565b600060208201905062000830600083018462000808565b92915050565b611ff080620008466000396000f3fe608060405234801561001057600080fd5b50600436106101215760003560e01c8063715018a6116100ad578063b391c50811610071578063b391c50814610332578063cf8494421461034e578063dd62ed3e1461036c578063ebf0c7171461039c578063f2fde38b146103ba57610121565b8063715018a61461028c5780638da5cb5b1461029657806395d89b41146102b4578063a457c2d7146102d2578063a9059cbb1461030257610121565b8063313ce567116100f4578063313ce567146101c257806338be65a3146101e057806339509351146101fc5780633bed56e51461022c57806370a082311461025c57610121565b806306fdde0314610126578063095ea7b31461014457806318160ddd1461017457806323b872dd14610192575b600080fd5b61012e6103d6565b60405161013b919061138b565b60405180910390f35b61015e6004803603810190610159919061144b565b610468565b60405161016b91906114a6565b60405180910390f35b61017c61048b565b60405161018991906114d0565b60405180910390f35b6101ac60048036038101906101a791906114eb565b610495565b6040516101b991906114a6565b60405180910390f35b6101ca6104c4565b6040516101d7919061155a565b60405180910390f35b6101fa60048036038101906101f591906115ab565b6104cd565b005b6102166004803603810190610211919061144b565b6104df565b60405161022391906114a6565b60405180910390f35b6102466004803603810190610241919061163d565b610516565b60405161025391906114d0565b60405180910390f35b6102766004803603810190610271919061168a565b61063f565b60405161028391906114d0565b60405180910390f35b610294610687565b005b61029e61069b565b6040516102ab91906116c6565b60405180910390f35b6102bc6106c5565b6040516102c9919061138b565b60405180910390f35b6102ec60048036038101906102e7919061144b565b610757565b6040516102f991906114a6565b60405180910390f35b61031c6004803603810190610317919061144b565b6107ce565b60405161032991906114a6565b60405180910390f35b61034c6004803603810190610347919061163d565b6107f1565b005b6103566109a6565b60405161036391906114d0565b60405180910390f35b610386600480360381019061038191906116e1565b6109b3565b60405161039391906114d0565b60405180910390f35b6103a4610a3a565b6040516103b19190611730565b60405180910390f35b6103d460048036038101906103cf919061168a565b610a40565b005b6060600380546103e59061177a565b80601f01602080910402602001604051908101604052809291908181526020018280546104119061177a565b801561045e5780601f106104335761010080835404028352916020019161045e565b820191906000526020600020905b81548152906001019060200180831161044157829003601f168201915b5050505050905090565b600080610473610ac3565b9050610480818585610acb565b600191505092915050565b6000600254905090565b6000806104a0610ac3565b90506104ad858285610c94565b6104b8858585610d20565b60019150509392505050565b60006012905090565b6104d5610f9f565b8060068190555050565b6000806104ea610ac3565b905061050b8185856104fc85896109b3565b61050691906117da565b610acb565b600191505092915050565b6000600760003373ffffffffffffffffffffffffffffffffffffffff1673ffffffffffffffffffffffffffffffffffffffff16815260200190815260200160002060009054906101000a900460ff16156105735760009050610639565b6000336040516020016105869190611856565b6040516020818303038152906040528051906020012090506105ec848480806020026020016040519081016040528093929190818152602001838360200280828437600081840152601f19601f820116905080830192505050505050506006548361101d565b61062b576040517f08c379a0000000000000000000000000000000000000000000000000000000008152600401610622906118bd565b60405180910390fd5b681b1ae4d6e2ef5000009150505b92915050565b60008060008373ffffffffffffffffffffffffffffffffffffffff1673ffffffffffffffffffffffffffffffffffffffff168152602001908152602001600020549050919050565b61068f610f9f565b6106996000611034565b565b6000600560009054906101000a900473ffffffffffffffffffffffffffffffffffffffff16905090565b6060600480546106d49061177a565b80601f01602080910402602001604051908101604052809291908181526020018280546107009061177a565b801561074d5780601f106107225761010080835404028352916020019161074d565b820191906000526020600020905b81548152906001019060200180831161073057829003601f168201915b5050505050905090565b600080610762610ac3565b9050600061077082866109b3565b9050838110156107b5576040517f08c379a00000000000000000000000000000000000000000000000000000000081526004016107ac9061194f565b60405180910390fd5b6107c28286868403610acb565b60019250505092915050565b6000806107d9610ac3565b90506107e6818585610d20565b600191505092915050565b600760003373ffffffffffffffffffffffffffffffffffffffff1673ffffffffffffffffffffffffffffffffffffffff16815260200190815260200160002060009054906101000a900460ff161561087e576040517f08c379a0000000000000000000000000000000000000000000000000000000008152600401610875906119e1565b60405180910390fd5b6001600760003373ffffffffffffffffffffffffffffffffffffffff1673ffffffffffffffffffffffffffffffffffffffff16815260200190815260200160002060006101000a81548160ff0219169083151502179055506000336040516020016108e99190611856565b60405160208183030381529060405280519060200120905061094f838380806020026020016040519081016040528093929190818152602001838360200280828437600081840152601f19601f820116905080830192505050505050506006548361101d565b61098e576040517f08c379a000000000000000000000000000000000000000000000000000000000815260040161098590611a73565b60405180910390fd5b6109a133681b1ae4d6e2ef5000006110fa565b505050565b681b1ae4d6e2ef50000081565b6000600160008473ffffffffffffffffffffffffffffffffffffffff1673ffffffffffffffffffffffffffffffffffffffff16815260200190815260200160002060008373ffffffffffffffffffffffffffffffffffffffff1673ffffffffffffffffffffffffffffffffffffffff16815260200190815260200160002054905092915050565b60065481565b610a48610f9f565b600073ffffffffffffffffffffffffffffffffffffffff168173ffffffffffffffffffffffffffffffffffffffff1603610ab7576040517f08c379a0000000000000000000000000000000000000000000000000000000008152600401610aae90611b05565b60405180910390fd5b610ac081611034565b50565b600033905090565b600073ffffffffffffffffffffffffffffffffffffffff168373ffffffffffffffffffffffffffffffffffffffff1603610b3a576040517f08c379a0000000000000000000000000000000000000000000000000000000008152600401610b3190611b97565b60405180910390fd5b600073ffffffffffffffffffffffffffffffffffffffff168273ffffffffffffffffffffffffffffffffffffffff1603610ba9576040517f08c379a0000000000000000000000000000000000000000000000000000000008152600401610ba090611c29565b60405180910390fd5b80600160008573ffffffffffffffffffffffffffffffffffffffff1673ffffffffffffffffffffffffffffffffffffffff16815260200190815260200160002060008473ffffffffffffffffffffffffffffffffffffffff1673ffffffffffffffffffffffffffffffffffffffff168152602001908152602001600020819055508173ffffffffffffffffffffffffffffffffffffffff168373ffffffffffffffffffffffffffffffffffffffff167f8c5be1e5ebec7d5bd14f71427d1e84f3dd0314c0f7b2291e5b200ac8c7c3b92583604051610c8791906114d0565b60405180910390a3505050565b6000610ca084846109b3565b90507fffffffffffffffffffffffffffffffffffffffffffffffffffffffffffffffff8114610d1a5781811015610d0c576040517f08c379a0000000000000000000000000000000000000000000000000000000008152600401610d0390611c95565b60405180910390fd5b610d198484848403610acb565b5b50505050565b600073ffffffffffffffffffffffffffffffffffffffff168373ffffffffffffffffffffffffffffffffffffffff1603610d8f576040517f08c379a0000000000000000000000000000000000000000000000000000000008152600401610d8690611d27565b60405180910390fd5b600073ffffffffffffffffffffffffffffffffffffffff168273ffffffffffffffffffffffffffffffffffffffff1603610dfe576040517f08c379a0000000000000000000000000000000000000000000000000000000008152600401610df590611db9565b60405180910390fd5b610e09838383611259565b60008060008573ffffffffffffffffffffffffffffffffffffffff1673ffffffffffffffffffffffffffffffffffffffff16815260200190815260200160002054905081811015610e8f576040517f08c379a0000000000000000000000000000000000000000000000000000000008152600401610e8690611e4b565b60405180910390fd5b8181036000808673ffffffffffffffffffffffffffffffffffffffff1673ffffffffffffffffffffffffffffffffffffffff16815260200190815260200160002081905550816000808573ffffffffffffffffffffffffffffffffffffffff1673ffffffffffffffffffffffffffffffffffffffff1681526020019081526020016000206000828254610f2291906117da565b925050819055508273ffffffffffffffffffffffffffffffffffffffff168473ffffffffffffffffffffffffffffffffffffffff167fddf252ad1be2c89b69c2b068fc378daa952ba7f163c4a11628f55a4df523b3ef84604051610f8691906114d0565b60405180910390a3610f9984848461125e565b50505050565b610fa7610ac3565b73ffffffffffffffffffffffffffffffffffffffff16610fc561069b565b73ffffffffffffffffffffffffffffffffffffffff161461101b576040517f08c379a000000000000000000000000000000000000000000000000000000000815260040161101290611eb7565b60405180910390fd5b565b60008261102a8584611263565b1490509392505050565b6000600560009054906101000a900473ffffffffffffffffffffffffffffffffffffffff16905081600560006101000a81548173ffffffffffffffffffffffffffffffffffffffff021916908373ffffffffffffffffffffffffffffffffffffffff1602179055508173ffffffffffffffffffffffffffffffffffffffff168173ffffffffffffffffffffffffffffffffffffffff167f8be0079c531659141344cd1fd0a4f28419497f9722a3daafe3b4186f6b6457e060405160405180910390a35050565b600073ffffffffffffffffffffffffffffffffffffffff168273ffffffffffffffffffffffffffffffffffffffff1603611169576040517f08c379a000000000000000000000000000000000000000000000000000000000815260040161116090611f23565b60405180910390fd5b61117560008383611259565b806002600082825461118791906117da565b92505081905550806000808473ffffffffffffffffffffffffffffffffffffffff1673ffffffffffffffffffffffffffffffffffffffff16815260200190815260200160002060008282546111dc91906117da565b925050819055508173ffffffffffffffffffffffffffffffffffffffff16600073ffffffffffffffffffffffffffffffffffffffff167fddf252ad1be2c89b69c2b068fc378daa952ba7f163c4a11628f55a4df523b3ef8360405161124191906114d0565b60405180910390a36112556000838361125e565b5050565b505050565b505050565b60008082905060005b84518110156112ae576112998286838151811061128c5761128b611f43565b5b60200260200101516112b9565b915080806112a690611f72565b91505061126c565b508091505092915050565b60008183106112d1576112cc82846112e4565b6112dc565b6112db83836112e4565b5b905092915050565b600082600052816020526040600020905092915050565b600081519050919050565b600082825260208201905092915050565b60005b8381101561133557808201518184015260208101905061131a565b60008484015250505050565b6000601f19601f8301169050919050565b600061135d826112fb565b6113678185611306565b9350611377818560208601611317565b61138081611341565b840191505092915050565b600060208201905081810360008301526113a58184611352565b905092915050565b600080fd5b600080fd5b600073ffffffffffffffffffffffffffffffffffffffff82169050919050565b60006113e2826113b7565b9050919050565b6113f2816113d7565b81146113fd57600080fd5b50565b60008135905061140f816113e9565b92915050565b6000819050919050565b61142881611415565b811461143357600080fd5b50565b6000813590506114458161141f565b92915050565b60008060408385031215611462576114616113ad565b5b600061147085828601611400565b925050602061148185828601611436565b9150509250929050565b60008115159050919050565b6114a08161148b565b82525050565b60006020820190506114bb6000830184611497565b92915050565b6114ca81611415565b82525050565b60006020820190506114e560008301846114c1565b92915050565b600080600060608486031215611504576115036113ad565b5b600061151286828701611400565b935050602061152386828701611400565b925050604061153486828701611436565b9150509250925092565b600060ff82169050919050565b6115548161153e565b82525050565b600060208201905061156f600083018461154b565b92915050565b6000819050919050565b61158881611575565b811461159357600080fd5b50565b6000813590506115a58161157f565b92915050565b6000602082840312156115c1576115c06113ad565b5b60006115cf84828501611596565b91505092915050565b600080fd5b600080fd5b600080fd5b60008083601f8401126115fd576115fc6115d8565b5b8235905067ffffffffffffffff81111561161a576116196115dd565b5b602083019150836020820283011115611636576116356115e2565b5b9250929050565b60008060208385031215611654576116536113ad565b5b600083013567ffffffffffffffff811115611672576116716113b2565b5b61167e858286016115e7565b92509250509250929050565b6000602082840312156116a05761169f6113ad565b5b60006116ae84828501611400565b91505092915050565b6116c0816113d7565b82525050565b60006020820190506116db60008301846116b7565b92915050565b600080604083850312156116f8576116f76113ad565b5b600061170685828601611400565b925050602061171785828601611400565b9150509250929050565b61172a81611575565b82525050565b60006020820190506117456000830184611721565b92915050565b7f4e487b7100000000000000000000000000000000000000000000000000000000600052602260045260246000fd5b6000600282049050600182168061179257607f821691505b6020821081036117a5576117a461174b565b5b50919050565b7f4e487b7100000000000000000000000000000000000000000000000000000000600052601160045260246000fd5b60006117e582611415565b91506117f083611415565b9250828201905080821115611808576118076117ab565b5b92915050565b60008160601b9050919050565b60006118268261180e565b9050919050565b60006118388261181b565b9050919050565b61185061184b826113d7565b61182d565b82525050565b6000611862828461183f565b60148201915081905092915050565b7f496e636f7272656374204d65726b6c652050726f6f6600000000000000000000600082015250565b60006118a7601683611306565b91506118b282611871565b602082019050919050565b600060208201905081810360008301526118d68161189a565b9050919050565b7f45524332303a2064656372656173656420616c6c6f77616e63652062656c6f7760008201527f207a65726f000000000000000000000000000000000000000000000000000000602082015250565b6000611939602583611306565b9150611944826118dd565b604082019050919050565b600060208201905081810360008301526119688161192c565b9050919050565b7f5573657220616c726561647920636c61696d656420697473206169722064726f60008201527f7021000000000000000000000000000000000000000000000000000000000000602082015250565b60006119cb602283611306565b91506119d68261196f565b604082019050919050565b600060208201905081810360008301526119fa816119be565b9050919050565b7f496e636f7272656374206d65726b6c652070726f6f66202d206e6f7420656c6960008201527f6769626c65000000000000000000000000000000000000000000000000000000602082015250565b6000611a5d602583611306565b9150611a6882611a01565b604082019050919050565b60006020820190508181036000830152611a8c81611a50565b9050919050565b7f4f776e61626c653a206e6577206f776e657220697320746865207a65726f206160008201527f6464726573730000000000000000000000000000000000000000000000000000602082015250565b6000611aef602683611306565b9150611afa82611a93565b604082019050919050565b60006020820190508181036000830152611b1e81611ae2565b9050919050565b7f45524332303a20617070726f76652066726f6d20746865207a65726f2061646460008201527f7265737300000000000000000000000000000000000000000000000000000000602082015250565b6000611b81602483611306565b9150611b8c82611b25565b604082019050919050565b60006020820190508181036000830152611bb081611b74565b9050919050565b7f45524332303a20617070726f766520746f20746865207a65726f20616464726560008201527f7373000000000000000000000000000000000000000000000000000000000000602082015250565b6000611c13602283611306565b9150611c1e82611bb7565b604082019050919050565b60006020820190508181036000830152611c4281611c06565b9050919050565b7f45524332303a20696e73756666696369656e7420616c6c6f77616e6365000000600082015250565b6000611c7f601d83611306565b9150611c8a82611c49565b602082019050919050565b60006020820190508181036000830152611cae81611c72565b9050919050565b7f45524332303a207472616e736665722066726f6d20746865207a65726f20616460008201527f6472657373000000000000000000000000000000000000000000000000000000602082015250565b6000611d11602583611306565b9150611d1c82611cb5565b604082019050919050565b60006020820190508181036000830152611d4081611d04565b9050919050565b7f45524332303a207472616e7366657220746f20746865207a65726f206164647260008201527f6573730000000000000000000000000000000000000000000000000000000000602082015250565b6000611da3602383611306565b9150611dae82611d47565b604082019050919050565b60006020820190508181036000830152611dd281611d96565b9050919050565b7f45524332303a207472616e7366657220616d6f756e742065786365656473206260008201527f616c616e63650000000000000000000000000000000000000000000000000000602082015250565b6000611e35602683611306565b9150611e4082611dd9565b604082019050919050565b60006020820190508181036000830152611e6481611e28565b9050919050565b7f4f776e61626c653a2063616c6c6572206973206e6f7420746865206f776e6572600082015250565b6000611ea1602083611306565b9150611eac82611e6b565b602082019050919050565b60006020820190508181036000830152611ed081611e94565b9050919050565b7f45524332303a206d696e7420746f20746865207a65726f206164647265737300600082015250565b6000611f0d601f83611306565b9150611f1882611ed7565b602082019050919050565b60006020820190508181036000830152611f3c81611f00565b9050919050565b7f4e487b7100000000000000000000000000000000000000000000000000000000600052603260045260246000fd5b6000611f7d82611415565b91507fffffffffffffffffffffffffffffffffffffffffffffffffffffffffffffffff8203611faf57611fae6117ab565b5b60018201905091905056fea26469706673582212206ce335c8202a88ce4735719be387840f5b290831b4a75190972dbde46102947964736f6c63430008110033",
  "linkReferences": {},
  "deployedLinkReferences": {}
}