{
  "_format": "hh-sol-artifact-1",
  "contractName": "EthSwap",
  "sourceName": "contracts/EthSwap.sol",
  "abi": [
    {
      "inputs": [
        {
          "internalType": "contract JanioToken",
          "name": "_tokenAddr",
          "type": "address"
        }
      ],
      "stateMutability": "nonpayable",
      "type": "constructor"
    },
    {
      "anonymous": false,
      "inputs": [
        {
          "indexed": false,
          "internalType": "address",
          "name": "from",
          "type": "address"
        },
        {
          "indexed": false,
          "internalType": "address",
          "name": "to",
          "type": "address"
        },
        {
          "indexed": false,
          "internalType": "address",
          "name": "tokenAddress",
          "type": "address"
        },
        {
          "indexed": false,
          "internalType": "uint256",
          "name": "amount",
          "type": "uint256"
        },
        {
          "indexed": false,
          "internalType": "uint256",
          "name": "rate",
          "type": "uint256"
        }
      ],
      "name": "TokenPurchased",
      "type": "event"
    },
    {
      "inputs": [],
      "name": "buyTokens",
      "outputs": [],
      "stateMutability": "payable",
      "type": "function"
    },
    {
      "inputs": [
        {
          "internalType": "uint256",
          "name": "",
          "type": "uint256"
        }
      ],
      "name": "eligibleAddr",
      "outputs": [
        {
          "internalType": "address",
          "name": "",
          "type": "address"
        }
      ],
      "stateMutability": "view",
      "type": "function"
    },
    {
      "inputs": [],
      "name": "getAirDropEligibleAdressess",
      "outputs": [
        {
          "internalType": "address[]",
          "name": "",
          "type": "address[]"
        }
      ],
      "stateMutability": "view",
      "type": "function"
    },
    {
      "inputs": [],
      "name": "name",
      "outputs": [
        {
          "internalType": "string",
          "name": "",
          "type": "string"
        }
      ],
      "stateMutability": "view",
      "type": "function"
    },
    {
      "inputs": [],
      "name": "rate",
      "outputs": [
        {
          "internalType": "uint256",
          "name": "",
          "type": "uint256"
        }
      ],
      "stateMutability": "view",
      "type": "function"
    },
    {
      "inputs": [
        {
          "internalType": "uint256",
          "name": "_tokenAmount",
          "type": "uint256"
        }
      ],
      "name": "sellTokens",
      "outputs": [],
      "stateMutability": "payable",
      "type": "function"
    },
    {
      "inputs": [],
      "name": "token",
      "outputs": [
        {
          "internalType": "contract JanioToken",
          "name": "",
          "type": "address"
        }
      ],
      "stateMutability": "view",
      "type": "function"
    }
  ],
  "bytecode": "0x60806040526040518060400160405280601681526020017f45746853776170204a616e696f2045786368616e676500000000000000000000815250600090816200004a919062000345565b5060646002553480156200005d57600080fd5b50604051620011ee380380620011ee8339818101604052810190620000839190620004aa565b80600160006101000a81548173ffffffffffffffffffffffffffffffffffffffff021916908373ffffffffffffffffffffffffffffffffffffffff16021790555050620004dc565b600081519050919050565b7f4e487b7100000000000000000000000000000000000000000000000000000000600052604160045260246000fd5b7f4e487b7100000000000000000000000000000000000000000000000000000000600052602260045260246000fd5b600060028204905060018216806200014d57607f821691505b60208210810362000163576200016262000105565b5b50919050565b60008190508160005260206000209050919050565b60006020601f8301049050919050565b600082821b905092915050565b600060088302620001cd7fffffffffffffffffffffffffffffffffffffffffffffffffffffffffffffffff826200018e565b620001d986836200018e565b95508019841693508086168417925050509392505050565b6000819050919050565b6000819050919050565b600062000226620002206200021a84620001f1565b620001fb565b620001f1565b9050919050565b6000819050919050565b620002428362000205565b6200025a62000251826200022d565b8484546200019b565b825550505050565b600090565b6200027162000262565b6200027e81848462000237565b505050565b5b81811015620002a6576200029a60008262000267565b60018101905062000284565b5050565b601f821115620002f557620002bf8162000169565b620002ca846200017e565b81016020851015620002da578190505b620002f2620002e9856200017e565b83018262000283565b50505b505050565b600082821c905092915050565b60006200031a60001984600802620002fa565b1980831691505092915050565b600062000335838362000307565b9150826002028217905092915050565b6200035082620000cb565b67ffffffffffffffff8111156200036c576200036b620000d6565b5b62000378825462000134565b62000385828285620002aa565b600060209050601f831160018114620003bd5760008415620003a8578287015190505b620003b4858262000327565b86555062000424565b601f198416620003cd8662000169565b60005b82811015620003f757848901518255600182019150602085019450602081019050620003d0565b8683101562000417578489015162000413601f89168262000307565b8355505b6001600288020188555050505b505050505050565b600080fd5b600073ffffffffffffffffffffffffffffffffffffffff82169050919050565b60006200045e8262000431565b9050919050565b6000620004728262000451565b9050919050565b620004848162000465565b81146200049057600080fd5b50565b600081519050620004a48162000479565b92915050565b600060208284031215620004c357620004c26200042c565b5b6000620004d38482850162000493565b91505092915050565b610d0280620004ec6000396000f3fe6080604052600436106100705760003560e01c80634aef488f1161004e5780634aef488f146100f65780636c11bcd314610133578063d0febe4c1461014f578063fc0c546a1461015957610070565b806306fdde0314610075578063145d4bfe146100a05780632c4e722e146100cb575b600080fd5b34801561008157600080fd5b5061008a610184565b60405161009791906107d7565b60405180910390f35b3480156100ac57600080fd5b506100b5610212565b6040516100c291906108e9565b60405180910390f35b3480156100d757600080fd5b506100e06102a0565b6040516100ed9190610924565b60405180910390f35b34801561010257600080fd5b5061011d60048036038101906101189190610970565b6102a6565b60405161012a91906109ac565b60405180910390f35b61014d60048036038101906101489190610970565b6102e5565b005b6101576104fd565b005b34801561016557600080fd5b5061016e610721565b60405161017b9190610a26565b60405180910390f35b6000805461019190610a70565b80601f01602080910402602001604051908101604052809291908181526020018280546101bd90610a70565b801561020a5780601f106101df5761010080835404028352916020019161020a565b820191906000526020600020905b8154815290600101906020018083116101ed57829003601f168201915b505050505081565b6060600380548060200260200160405190810160405280929190818152602001828054801561029657602002820191906000526020600020905b8160009054906101000a900473ffffffffffffffffffffffffffffffffffffffff1673ffffffffffffffffffffffffffffffffffffffff168152602001906001019080831161024c575b5050505050905090565b60025481565b600381815481106102b657600080fd5b906000526020600020016000915054906101000a900473ffffffffffffffffffffffffffffffffffffffff1681565b80600160009054906101000a900473ffffffffffffffffffffffffffffffffffffffff1673ffffffffffffffffffffffffffffffffffffffff166370a08231336040518263ffffffff1660e01b815260040161034191906109ac565b602060405180830381865afa15801561035e573d6000803e3d6000fd5b505050506040513d601f19601f820116820180604052508101906103829190610ab6565b101561038d57600080fd5b600160009054906101000a900473ffffffffffffffffffffffffffffffffffffffff1673ffffffffffffffffffffffffffffffffffffffff166323b872dd3330846040518463ffffffff1660e01b81526004016103ec93929190610ae3565b6020604051808303816000875af115801561040b573d6000803e3d6000fd5b505050506040513d601f19601f8201168201806040525081019061042f9190610b52565b506000600254826104409190610bdd565b90508047101561044f57600080fd5b3373ffffffffffffffffffffffffffffffffffffffff166108fc829081150290604051600060405180830381858888f19350505050158015610495573d6000803e3d6000fd5b507f5d370c76eacf69ac39baf6888766350092d881a70a870ca052922424381f18363330600160009054906101000a900473ffffffffffffffffffffffffffffffffffffffff16856002546040516104f1959493929190610c0e565b60405180910390a15050565b60006002543461050d9190610c61565b905080600160009054906101000a900473ffffffffffffffffffffffffffffffffffffffff1673ffffffffffffffffffffffffffffffffffffffff166370a08231306040518263ffffffff1660e01b815260040161056b91906109ac565b602060405180830381865afa158015610588573d6000803e3d6000fd5b505050506040513d601f19601f820116820180604052508101906105ac9190610ab6565b10156105b757600080fd5b600160009054906101000a900473ffffffffffffffffffffffffffffffffffffffff1673ffffffffffffffffffffffffffffffffffffffff1663a9059cbb33836040518363ffffffff1660e01b8152600401610614929190610ca3565b6020604051808303816000875af1158015610633573d6000803e3d6000fd5b505050506040513d601f19601f820116820180604052508101906106579190610b52565b506003339080600181540180825580915050600190039060005260206000200160009091909190916101000a81548173ffffffffffffffffffffffffffffffffffffffff021916908373ffffffffffffffffffffffffffffffffffffffff1602179055507f5d370c76eacf69ac39baf6888766350092d881a70a870ca052922424381f18363033600160009054906101000a900473ffffffffffffffffffffffffffffffffffffffff1684600254604051610716959493929190610c0e565b60405180910390a150565b600160009054906101000a900473ffffffffffffffffffffffffffffffffffffffff1681565b600081519050919050565b600082825260208201905092915050565b60005b83811015610781578082015181840152602081019050610766565b60008484015250505050565b6000601f19601f8301169050919050565b60006107a982610747565b6107b38185610752565b93506107c3818560208601610763565b6107cc8161078d565b840191505092915050565b600060208201905081810360008301526107f1818461079e565b905092915050565b600081519050919050565b600082825260208201905092915050565b6000819050602082019050919050565b600073ffffffffffffffffffffffffffffffffffffffff82169050919050565b600061085082610825565b9050919050565b61086081610845565b82525050565b60006108728383610857565b60208301905092915050565b6000602082019050919050565b6000610896826107f9565b6108a08185610804565b93506108ab83610815565b8060005b838110156108dc5781516108c38882610866565b97506108ce8361087e565b9250506001810190506108af565b5085935050505092915050565b60006020820190508181036000830152610903818461088b565b905092915050565b6000819050919050565b61091e8161090b565b82525050565b60006020820190506109396000830184610915565b92915050565b600080fd5b61094d8161090b565b811461095857600080fd5b50565b60008135905061096a81610944565b92915050565b6000602082840312156109865761098561093f565b5b60006109948482850161095b565b91505092915050565b6109a681610845565b82525050565b60006020820190506109c1600083018461099d565b92915050565b6000819050919050565b60006109ec6109e76109e284610825565b6109c7565b610825565b9050919050565b60006109fe826109d1565b9050919050565b6000610a10826109f3565b9050919050565b610a2081610a05565b82525050565b6000602082019050610a3b6000830184610a17565b92915050565b7f4e487b7100000000000000000000000000000000000000000000000000000000600052602260045260246000fd5b60006002820490506001821680610a8857607f821691505b602082108103610a9b57610a9a610a41565b5b50919050565b600081519050610ab081610944565b92915050565b600060208284031215610acc57610acb61093f565b5b6000610ada84828501610aa1565b91505092915050565b6000606082019050610af8600083018661099d565b610b05602083018561099d565b610b126040830184610915565b949350505050565b60008115159050919050565b610b2f81610b1a565b8114610b3a57600080fd5b50565b600081519050610b4c81610b26565b92915050565b600060208284031215610b6857610b6761093f565b5b6000610b7684828501610b3d565b91505092915050565b7f4e487b7100000000000000000000000000000000000000000000000000000000600052601260045260246000fd5b7f4e487b7100000000000000000000000000000000000000000000000000000000600052601160045260246000fd5b6000610be88261090b565b9150610bf38361090b565b925082610c0357610c02610b7f565b5b828204905092915050565b600060a082019050610c23600083018861099d565b610c30602083018761099d565b610c3d604083018661099d565b610c4a6060830185610915565b610c576080830184610915565b9695505050505050565b6000610c6c8261090b565b9150610c778361090b565b9250828202610c858161090b565b91508282048414831517610c9c57610c9b610bae565b5b5092915050565b6000604082019050610cb8600083018561099d565b610cc56020830184610915565b939250505056fea2646970667358221220b9f3d48d46d62860045cb343dacb36f6efaf8315039d1eb9aec702a18cacc0f564736f6c63430008110033",
  "linkReferences": {},
  "deployedLinkReferences": {}
}